:020000040800F2
:1000000060080020D5010008BD1F0008811B000802
:10001000B91F0008D1050008E92000080000000011
:10002000000000000000000000000000C51F0008E4
:10003000D505000800000000C11F0008C91F000806
:10004000EF010008EF010008EF010008EF010008D0
:10005000EF010008EF010008EF010008EF010008C0
:10006000EF010008EF010008EF010008EF010008B0
:10007000EF010008EF010008EF010008EF010008A0
:10008000EF010008EF010008EF010008EF01000890
:10009000EF010008EF010008EF010008EF01000880
:1000A000EF010008EF010008EF010008EF01000870
:1000B000EF010008EF010008EF010008EF01000860
:1000C000EF010008EF010008EF010008EF01000850
:1000D000EF010008DD200008EF010008EF01000833
:1000E000EF010008EF010008EF01000800F002F83E
:1000F00000F047F80AA090E8000C82448344AAF17B
:100100000107DA4501D100F03CF8AFF2090EBAE878
:100110000F0013F0010F18BFFB1A43F0010318473B
:10012000B0330000D0330000103A24BF78C878C143
:10013000FAD8520724BF30C830C144BF04680C60ED
:10014000704700000023002400250026103A28BF35
:1001500078C1FBD8520728BF30C148BF0B60704739
:10016000642900F0E980632900F0EB81732900F035
:10017000F081002070471FB500F02FF91FBD10B5AA
:1001800010BD00F0EAF91146FFF7F5FF02F0F6FDA9
:1001900000F008FA03B4FFF7F2FF03BC00F012FA14
:1001A0000B49D1F800C04A685CF8043B1068184459
:1001B00042F8040B8C4528BFA1F1DC0C8A4228BF11
:1001C000A1F1DC02C1F800C04A6020F00040704795
:1001D000EC0000200948804709480047FEE7FEE799
:1001E000FEE7FEE7FEE7FEE7FEE7FEE7FEE7FEE7E7
:1001F00004480549054A064B70470000CD1F00081A
:10020000ED0000086002002060080020600400206B
:10021000600400200FB41CB5074B06AA7B44694656
:100220000090059800F063F90020694600F072F92B
:100230001CBC5DF814FB0000F50200000FB41CB5F7
:100240000C0007AA009007D04142A14202D32044EB
:10025000401E01E04FF0FF30074B7B4469460190A0
:10026000069800F044F90020002C01D00099087095
:100270001CBC5DF814FB0000C10200002DE9F04138
:100280000E460446002020622046E168884730B3CD
:10029000252805D0D4E901219047206A401CF2E7C7
:1002A000E168204600278847050018D0A5F14100E5
:1002B000192802D820354FF40067324629462046D7
:1002C0002760FFF74DFF40B1012804D0F61D26F04E
:1002D00007060836D8E7361DD6E72846DAE7206A4B
:1002E000BDE8F08170B50C460546012A05D0287896
:1002F000800600D5EA69002302E0012305E05B1CCB
:10030000934202D2E05C0028F9D1A869E618C01A2D
:10031000A861286A184428622846AFF3008004E0E8
:10032000D5E9012114F8010B9047B442F8D32846CF
:10033000AFF3008070BD00002DE9F04106460024B7
:1003400010687529314616A510D0AFF3008000283B
:1003500002DA404213A507E031688A0701D512A5E9
:1003600002E0490704D511A5012401E0AFF30080A4
:1003700000210A2206F1240709E0B0FBF2FCB0FBE1
:10038000F2F302FB1C00303078541846491C002858
:10039000F3D123462A463046BDE8F04100F048B884
:1003A000000000002D0000002B00000020000000D5
:1003B0000B4910B5A1F17C020A4CC2E93712372172
:1003C00006E000EB104342F82130074B00FB0340EE
:1003D0000B1EA1F10101F4DC10BD0120E8E70000D3
:1003E0008C000020E119D666CD0D010010B5431C2C
:1003F00002E010F8011B71B18107FAD14FF0013210
:1004000002C88C1A8C4314EAC211F9D0C01A0A0629
:1004100003D0C01E10BDC01A10BD0A0401D0801E3A
:1004200010BD0902FCD0401E10BD704770477047D8
:100430002DE9F0470D4699469246044600F12408FE
:100440000168880604D5E06921F01001216000E010
:100450000120A84201DD471B00E00027A1697A19AD
:1004600002EB0900081AA0612078C00602D42046D9
:10047000AFF30080002608E0D4E901211AF8060055
:100480009047206A401C761C20624E45F4DB2078A1
:10049000C0060AD52046AFF3008006E0D4E901216A
:1004A00030209047206A401C2062381EA7F10107C7
:1004B000F4DC07E0D4E9012118F805009047206A30
:1004C000401C2062281EA5F10105F3DC2046AFF395
:1004D00000802078000602D50220BDE8F0870120C8
:1004E000FBE7000001694A1C02610878704700B50B
:1004F0008FB0CDE901310021059105497944CDE95D
:10050000031011466846FFF7B9FE0FB000BD0000AA
:10051000E5FFFFFF0A6802F8010B0A607047D1E9A6
:1005200000239A4202D2531C0B601070704710B522
:10053000436913B1AFF3008001E0FFF7D3FE012060
:1005400010BD127800F124010A7000224A700122C5
:10055000EDE711684FF0FF32E9E7754600F02CF83F
:10056000AE4605006946534620F00700854618B0A0
:1005700020B5FFF73DFEBDE820404FF000064FF0EC
:1005800000074FF000084FF0000BAC46ACE8C00984
:10059000ACE8C009ACE8C009ACE8C00921F007012B
:1005A0008D46704710B50446AFF300802046BDE885
:1005B0001040FFF7EFBD000000487047F400002036
:1005C0007047000001491820ABBEFEE7260002007C
:1005D000FEE7000070470000014690F82100022865
:1005E00016D10868D1E90FC3026822F00E0202603A
:1005F000026822F001020260012000FA03F2CCF846
:10060000042081F821000020002281F8202070477A
:10061000042088630120002281F820207047000018
:1006200080B590F82110022924D10268116821F0C8
:100630000E0111602F211368C4F202018A4240F2B8
:100640000401C4F2020123F00103136016DD30231C
:10065000C4F202039A421DD04423C4F202039A4218
:100660001CD05823C4F202039A421DD14FF48033A8
:1006700022E000BF04218163012080BD0823C4F271
:1006800002039A420ED01C23C4F202039A420BD1F9
:10069000102311E04FF480730EE000BF4FF480533D
:1006A0000AE000BF012307E001F1680C4FF08073FE
:1006B000624508BF4FF480130B60012180F82110C0
:1006C000426B002180F820100AB1904700210846B3
:1006D00080BD0000B0B5044600F02AF9054640F29E
:1006E0000000C2F200000078611C18BF044400BF83
:1006F00000F01EF9401BA042FAD3B0BD2DE9F04F27
:1007000082B00E68002E00F0038141F20042C4F274
:100710000102042340F2004E904208BF03234FF62B
:10072000FF7CC4F2010E009300240123C1F2100CDF
:100730004FF0000A4FF0000949E000BF012704F024
:100740000C030F229A402BEA020207FA03F34FEA46
:100750009A051A4346F82520D1F804B040F20C451A
:100760005FEACB22DEF8082054BF22EA080242EA00
:100770000802C4F20105CEF808202A685FEA8B233C
:1007800054BF22EA080242EA08022A605FEA8B3379
:10079000DEF8042054BF22EA080242EA08025FEAB7
:1007A000CB33CEF80420DEF800204FF0010354BF15
:1007B00022EA080242EA0802CEF800200E680AF196
:1007C000010A36FA0AF204F1040400F0A18003FAE7
:1007D0000AF816EA080FF1D04E68664512DC122EB0
:1007E00056D8DFE806F0350B454955555555555552
:1007F000555555555555554D510000BFD1F80C90E4
:1008000046E000BF4FF6FF72C1F2210296420FDCB4
:100810000022C1F2110296421AD00022C1F2120245
:10082000964215D00022C1F22102964210D02FE04C
:100830000022C1F2220296420AD00022C1F2310205
:10084000964205D00022C1F23202964220D100BF6A
:100850008A684AB1012A14BFC0F81480C0F8108019
:100860004FF0080914E000BF4FF0040910E000BF8A
:10087000CA6802F108090BE04FF0000908E000BF68
:10088000CA6802F1040903E0CA6802F10C0900BF5A
:1008900022460646BAF1080F24BF203A04363768CC
:1008A0000F25954027EA050509FA02F22A4332602E
:1008B000CA79D2067FF582AF41F21803C4F202036F
:1008C0001A68AEF57E7642F001021A601A6802F0EC
:1008D00001020192019A2AF0030256F802B040F692
:1008E0000002C4F20102904210D040F60042C4F26D
:1008F000010290423FF422AF41F20002C4F2010231
:10090000009F904208BF022719E700BF002716E7A3
:1009100002B0BDE8F08F00008068084018BF0120D9
:1009200070470000002A08BF0904016170470000F9
:1009300040F25C20C2F200000068704770B5B8B3A6
:10094000044690F83D0028B9002084F83C00204679
:1009500000F09AF9242084F83D002068016821F015
:1009600001010160016841F400410160016821F466
:100970000041016000F052FB48F28041C0F21E01CC
:1009800040F60013D4F804E088424FF00001C0F2B2
:100990003D0348F2A16C4FF0000238BF012198429C
:1009A000C0F2010C38BF0122E64538BF0A460AB141
:1009B000012070BD4DF68361C4F21B31A0FB011212
:1009C0002168950C4B684FF4967623F03F0343EA79
:1009D0009243754344F6D3564B60C1F262060B6AEC
:1009E000A5FB0656B50923F03F03E64538BF950C35
:1009F0006A1C1A430A62CA6948F2A0664CF6FF7381
:100A0000C0F20106B64522EA03020BD801384FEACC
:100A10004E03B0FBF3F001306FF31F30042898BF92
:100A200004201EE0A368013863B119230EFB03F311
:100A3000B0FBF3F001306FF31F3078B100F5804068
:100A400008E000BF0EEB4E03B0FBF3F001306FF394
:100A50001F3028B100F5004003E000BF012000E096
:100A600001201043C8610868D4E9072320F0C000C2
:100A7000104318430860886848F2FF3204F10C06FE
:100A800090434CCE18431043A5698860C86820F095
:100A9000FF0030432843C860086840F00100086048
:100AA00000202021206484F83D10206384F83E005B
:100AB00070BD00002DE9F04383B01E4617468946FD
:100AC0000446FFF735FF94F83D10202920D1054654
:100AD000206800BF8169890716D5FFF729FF411BF0
:100AE00020681A29F6D381698907F3D500202021CF
:100AF000206384F83D1084F83E00216C41F0200111
:100B0000216484F83C0003E094F83C10012903D1EF
:100B1000022003B0BDE8F083012184F83C10016895
:100B2000C90703D1016841F001010160016840F289
:100B3000020821F400610160212184F83D10102198
:100B400084F83E100021216467626685618DC0F2E1
:100B500001082185A8F10211E162E16A0A9E11F5FE
:100B6000803F18BF01291DD1016841F480710160E7
:100B700020464FF0011100223346009501F062F843
:100B800050B120680068C00544BF4FF40070206475
:100B9000012003B0BDE8F0832069B0F5804F07D194
:100BA000FE2015E00829DFD0216B1229DCD0DFE719
:100BB000062000EAD9102168F030086108F106012A
:100BC000204632462B4601F027F90028E0D1FF20CD
:100BD000216800EA090008612046414632462B465A
:100BE00001F01AF90028D3D1002002902068416951
:100BF000029180690290029806E000BF20463146CB
:100C00002A4600F0BFFF18BB208D68B3204631464E
:100C10002A4601F071F9D8B9606A2168024612F8D3
:100C2000013B0B616262628D013A6285228D531E27
:100C300023854F697F07E1D51B04DFD0437802305D
:100C40000B616062608D01386085901E2085D5E75C
:100C5000206C04289CD12068016841F40071016077
:100C6000012003B0BDE8F0832068016841F4007101
:100C70000160202084F83D00002084F83E0084F8C4
:100C80003C0003B0BDE8F08310B586B045F20041EA
:100C90000068C4F2000100228842049202D006B02B
:100CA00010BD00BF41F21804C4F20204206840F0F5
:100CB00008002060206800F0080001900198C02022
:100CC0000290122003900320059001F5384002A9FC
:100CD000FFF714FD606840F400106060606800F485
:100CE00000100190019806B010BD000040F2000015
:100CF00040F25C21C2F20000C2F2000100780A68F2
:100D0000104408607047000080B542F20000C4F251
:100D10000200016841F010010160032000F08EF82C
:100D20000F2000F005F800F027F8002080BD00003B
:100D300070B540F20006C2F2000640F208013278B7
:100D4000C2F200014FF47A730968B3FBF2F2044671
:100D5000B1FBF2F1084600F063FB0F2C4FF00105E8
:100D600008D838B94FF0FF3021460022002500F0A6
:100D700039F87460284670BD82B041F21800C4F2A0
:100D800002000168022241F001010160016801F0E6
:100D9000010101910199416841F080514160406831
:100DA00000F08050009000980420C4F20100016817
:100DB00062F31A61016002B070470000002848BF6A
:100DC0007047C1B200F01F00012202FA00F04EF29B
:100DD0000012CEF2000242EAD10121F003010860C4
:100DE0007047000010B54EF60C5CCEF2000CDCF83B
:100DF0000030C3F3022E8EF00704042C28BF042415
:100E0000BEF103034FF0FF3E0EFA04F438BF002397
:100E1000A14399400EFA03F39A43114300F00F02E5
:100E200000F160430901043A03F564436244002879
:100E300048BF02F10C03197010BD00004EF60C51B2
:100E4000CEF200010A684FF6FF031A4060F30A224F
:100E500042F0806040F0FD70086070472DE9F0437B
:100E600081B0002800F0858042F20008C4F2020838
:100E70000446D8F800000D4600F0070088420CD266
:100E8000D8F8000020F007002843C8F80000D8F880
:100E9000000000F00700A8426BD1206841F204096D
:100EA0008107C4F2020917D5410705D5D9F800100A
:100EB00041F4E061C9F80010010705D5D9F8001028
:100EC00041F46051C9F80010D9F80010A26821F06F
:100ED000F0011143C9F80010C00741D1D8F8000053
:100EE00000F00700A8420CD9D8F8000020F0070055
:100EF0002843C8F80000D8F8000000F00700A84216
:100F000037D12068410707D5D9F80010E26821F4ED
:100F1000E0611143C9F80010000708D5D9F80000B6
:100F2000216920F4605040EAC100C9F80000D9F8F6
:100F3000002002F00C00082841F20020C0F27A00E4
:100F400050D143F24833C2F38341C0F60003595CE9
:100F5000D2033BD440F60010C0F23D00484341E0CC
:100F6000606802280AD001282AD159F8041C890394
:100F700008D4012001B0BDE8F08300BF59F8041C7B
:100F80008901F6D5D9F8001021F003010843C9F80A
:100F90000000FFF7CDFC064641F28837D9F8000083
:100FA000616800F00C00B0EB810F97D0FFF7C0FC38
:100FB000801BB842F2D9032001B0BDE8F08300BF26
:100FC00059F8041C8907D4D5DCE700BFD9F8002004
:100FD00043F24633C2F34042C0F600039A5C4843F2
:100FE000B0FBF2F0D9F8001043F22E32C1F3031136
:100FF000C0F60002515C40F2080220FA01F140F212
:101000000400C2F200000068C2F200021160FFF7A3
:101010008FFE002001B0BDE8F083000040F2080020
:1010200041F20401C2F20000C4F202010068096842
:1010300043F23E32C1F30221C0F60002515CC840C7
:101040007047000040F2080041F20401C2F20000C3
:10105000C4F202010068096843F23E32C1F3C221C2
:10106000C0F60002515CC840704700002DE9F04115
:1010700082B0002868D00446007841F20006C0071C
:10108000C4F2020625D0706800F00C0004281BD0C2
:10109000706800F00C00082802D17068C00313D4F7
:1010A0006068002800F06881B0F5A02F00F07C8116
:1010B000B0F5803F00F07C81306820F480303060F3
:1010C000306820F4802076E13068800301D56068C4
:1010D000D0B32078800718D5706810F00C0F07D0B7
:1010E000706800F00C0008286ED17068C0036BD4E3
:1010F0003068800702D52069012825D130686169F0
:1011000020F0F80040EAC1003060207800071FD4CA
:101110002078400732D4E56995B1706800F00C0082
:10112000082840F08F80012D0ED07068216A00F4ED
:1011300080328A4208D1616A00F47010884203D17B
:10114000002002B0BDE8F081012002B0BDE8F081CE
:10115000A069002862D00020C4F242200121C0F81A
:101160008014FFF7E5FB0546706A800700F18C806C
:10117000FFF7DEFB401B0228F6D92AE1F06910F0E8
:10118000805808D1F06940F08050F061F06900F0BB
:1011900080500090009847F20007C4F200073868BA
:1011A000C00529D4386840F480703860FFF7C0FB70
:1011B000054600BF3868C0051ED4FFF7B9FB401BC9
:1011C0006428F7D905E100BF2069002840F200003B
:1011D000C4F2422000F0828001210160FFF7A8FBE9
:1011E000054600BF306880073FF588AFFFF7A0FBDA
:1011F000401B0228F6D9ECE0E068002800F080806F
:10120000052800F09780012800F09880306A20F0CF
:1012100001003062306A20F0040092E00020C4F245
:1012200042200021C0F88014FFF782FB054600BF72
:10123000706A80077FF56CAFFFF77AFB401B0228CE
:10124000F6D9C6E00027C4F2422700203866FFF72F
:101250006FFB022D05460BD13068800140F1BE8046
:10126000FFF766FB401B02284FF00300F4D968E744
:10127000306880017FF564AFFFF75AFB401B0228FE
:101280004FF00300F4D95CE740F20800C2F200001E
:10129000006844F6D351C1F26201A0FB0101480A83
:1012A000019000BF00BF0198411E002801913FF44A
:1012B0002FAF00BF0198411E002801913FF428AFD5
:1012C00000BF0198411E002801913FF421AF00BFEB
:1012D0000198411E00280191E4D119E70021016025
:1012E000FFF726FB054600BF306880077FF50DAF8E
:1012F000FFF71EFB401B02284FF00300F4D920E744
:10130000306A20F001003062306A20F00400306260
:10131000FFF70EFB054641F2883700BF306A8007B1
:1013200020D5FFF705FB401BB8424FF00300F5D96D
:1013300007E700BF306A40F004003062306A40F0D6
:1013400001003062FFF7F4FA054641F2883700BF2A
:10135000306A800706D4FFF7EBFA401BB842F7D992
:1013600037E000BFB8F1000F7FF4D5AEF06920F090
:101370008050F061CFE600BF306820F480303060EC
:10138000306820F480203060FFF7D2FA054600BFB5
:10139000306880037FF59DAEFFF7CAFA401B6428D2
:1013A0004FF00300F4D9CCE6306840F48020306080
:1013B000306840F480303060FFF7BAFA054600BF6D
:1013C000306880033FF585AEFFF7B2FA401B642812
:1013D000F6D9032002B0BDE8F08100BF206AB0F565
:1013E000803F05D17168A26821F40031114371601A
:1013F0007168626A21F4741111430843706001201E
:101400003866FFF795FA0446306880013FF598AEDC
:10141000FFF78EFA001B02284FF00300F4D990E684
:10142000411E0020B0EB116F1CBF012070474EF22F
:101430001002CEF2000251604EF62351CEF20001AE
:10144000F0230B7007219060116070477047000017
:1014500070470000B0B582B0044600680168C368F8
:10146000426901F02F05202D03F0200506D12DB192
:10147000204602B0BDE8B04000F0B0BD5FEA017C9C
:101480001EBF02F0010E03F4907212EB0E0253D154
:10149000226B012A05D111F0100218BF13F01002BF
:1014A00036D10A0622D513F080021FD094F84110DD
:1014B00021293FD1A168B1F5805F03D121690029BD
:1014C00000F07082216A4A1C226209784160E18C36
:1014D00001390A04E1842DD1C16821F08001C16085
:1014E000C16841F04001C16002B0B0BD490621D5DC
:1014F00013F040011ED0C16821F04001C1602021DD
:10150000204684F8411002B0BDE8B04000F028BB8E
:10151000002101910168019141680191019940699F
:10152000400613D4A08DE18DE28D002A18BF8842B9
:1015300040F0BA8102B0B0BDCA0718BF13F4807280
:1015400040F0B6804A0700F1B980BEE0E06B016868
:1015500049688AB2002AEDD0A38D9A42EAD2E18589
:101560008069202800F09C80206850E8030F2168E3
:1015700020F4807041E80302DAB1206850E8030FDC
:10158000216820F4807041E8030292B1206850E89D
:10159000030F216820F4807041E803024AB12068FB
:1015A00050E8030F216820F4807041E80302002A0C
:1015B000DAD1206850E8050F216820F0010041E8E9
:1015C0000502DAB1206850E8050F216820F001001B
:1015D00041E8050292B1206850E8050F216820F02B
:1015E000010041E805024AB1206850E8050F216872
:1015F00020F0010041E80502002ADAD1206850E815
:10160000050F216820F0400041E80502DAB12068AA
:1016100050E8050F216820F0400041E8050292B132
:10162000206850E8050F216820F0400041E80502DD
:101630004AB1206850E8050F216820F0400041E8D9
:101640000502002ADAD1202084F84200002020631D
:10165000206850E8030F216820F0100041E80302E1
:10166000DAB1206850E8030F216820F0100041E84B
:10167000030292B1206850E8030F216820F01000A7
:1016800041E803024AB1206850E8030F216820F0C6
:10169000100041E80302002ADAD1E06BFEF79CFF5C
:1016A00002206063A08DE18D401A81B2204674E172
:1016B000626C42F0010262644A0706D5BEF1000F77
:1016C00003D0626C42F0020262648A0706D5BEF162
:1016D000000F03D0626C42F004026264BCF1000FA0
:1016E00009D545EA0E02B2FA82F2520903D1626CC0
:1016F00042F008026264626C002A3FF41BAF11F0F2
:10170000200118BF002D03D0204600F067FC2068A0
:101710004069616C00F0400001F00801401800F0E1
:10172000B58000BF206850E8030F216820F4907056
:1017300041E80302BAB3206850E8030F216820F49F
:10174000907041E8030272B3206850E8030F2168EB
:1017500020F4907041E803022AB3206850E8030F98
:10176000216820F4907041E80302002ADAD11AE0DF
:10177000206850E8050F216820F0010041E80502CB
:10178000DAB1206850E8050F216820F0010041E837
:10179000050292B1206850E8050F216820F0010091
:1017A00041E805024AB1206850E8050F216820F0A1
:1017B000010041E80502002ADAD1206B012824D17A
:1017C000206850E8030F216820F0100041E8030270
:1017D000DAB1206850E8030F216820F0100041E8DA
:1017E000030292B1206850E8030F216820F0100036
:1017F00041E803024AB1206850E8030F216820F055
:10180000100041E80302002ADAD1202084F84200C7
:10181000002020632068406940063FD5206850E8DA
:10182000050F216820F0400041E80502DAB1206888
:1018300050E8050F216820F0400041E8050292B110
:10184000206850E8050F216820F0400041E80502BB
:101850004AB1206850E8050F216820F0400041E8B7
:101860000502002ADAD1E06BC0B141F6D171C0F6B1
:1018700000014163FEF7D4FE00283FF45BAEE06B4D
:10188000416B02B0BDE8B040084700BF2046FFF7FB
:10189000DFFD0020606402B0B0BD00BF204602B092
:1018A000BDE8B040FFF7D4BD401A216851E8031FDE
:1018B000226821F4907142E80313DBB1216851E8FA
:1018C000031F226821F4907142E8031393B1216849
:1018D00051E8031F226821F4907142E803134BB1D1
:1018E000216851E8031F226821F4907142E8031334
:1018F000002BDAD1216851E8051F226821F001018F
:1019000042E80513DBB1216851E8051F226821F088
:10191000010142E8051393B1216851E8051F2268CF
:1019200021F0010142E805134BB1216851E8051F80
:10193000226821F0010142E80513002BDAD12021B1
:1019400084F8421000212163216851E8031F2268B6
:1019500021F0100142E80313DBB1216851E8031FB5
:10196000226821F0100142E8031393B1216851E885
:10197000031F226821F0100142E803134BB12168D4
:1019800051E8031F226821F0100142E80313002BE5
:10199000DAD1022281B22046626302B0BDE8B040D3
:1019A000FFF754BD216A31F8022B6FF35F224260CA
:1019B00021628CE5002804BF0120704710B5044661
:1019C00090F8410028B9002084F84000204600F03B
:1019D00063F8242084F841002068D4E90212C36827
:1019E00023F40053C360036923F440531A43026194
:1019F000D4E904231143C268194341F20C639A43AA
:101A00001143C1604169A26921F44071114343F659
:101A10000002C4F201029042416103D0FFF7FEFAD6
:101A200002E000BFFFF70EFB6268192148439100F6
:101A3000B0FBF1F048F21F51C5F2EB11A0FB0123FE
:101A40005A094FF69C73C0F6FF7302FB0300322362
:101A500003EB0010A0FB0101F02303EA51132068FF
:101A600003EB0212C1F3431111448160016921F4B7
:101A700090410161416921F02A014161C16841F44D
:101A80000051C16000202021606484F8411084F876
:101A90004210606310BD000070B586B040F60004CF
:101AA000C4F20104006804F54051002688420496FF
:101AB00002D006B070BD00BF41F21800C4F20200AF
:101AC000016802AD41F480410160016801F4804188
:101AD00001910199016841F0040101600068294603
:101AE00000F00400019001984FF400700290022071
:101AF0000390032005902046FEF700FE4FF480601F
:101B0000CDE90206204629460496FEF7F7FD25207A
:101B100000210022FFF766F92520FFF74FF906B0F4
:101B200070BD000070470000034690F84100202877
:101B30001CBF0220704700294FF0010018BF002A87
:101B400000D170471962002021219A84DA845864F8
:101B500083F841101968CA6842F08002CA60704771
:101B6000006843F60001C4F20101884218BF7047C3
:101B700040F25410C2F20000002141707047000092
:101B8000FEE7000070B50368044653F8140F4007E1
:101B900011D40E46481C29D086BB00BF18684005EA
:101BA00027D4FEF7C5FE236853F8140F400739D534
:101BB00018684007F2D5002070BD00BF18684007C4
:101BC000F9D41868400514D418684007F3D418688D
:101BD00040050ED418684007EDD41868400508D4B5
:101BE000186840074FF0000048BF70BD18684005F6
:101BF000E4D56FF480601860042014E0154603E01B
:101C000053F8140F4007D6D418684005F1D4FEF7F6
:101C10008FFE401B2368B042F2D958694007EFD4C9
:101C2000202000E0202000212022216384F83D2094
:101C300084F83E10226C10432064012084F83C108C
:101C400070BD00002DE9F041054600681E461446AF
:101C500001F47F0201338FB242D0DDF81880B2F573
:101C6000803F40F0878040693840C01BB0FA80F068
:101C70004009A04240F0C8804EB924E04069384095
:101C8000C01BB0FA80F04009A04240F0BD80FEF7D2
:101C90004FFEA0EB08012868B142EFD941693940F5
:101CA000C91BB1FA81F14909A142E7D19BE000BF0C
:101CB00040693840C01BB0FA80F04009A0424FF0A4
:101CC000000040F0A680FEF733FE286841693940E5
:101CD000C91BB1FA81F14909A142E9D183E000BFF2
:101CE000B2F5803F24D100BF41693940C91BB1FA28
:101CF00081F14909A14240F0878041693940C91BFF
:101D0000B1FA81F14909A14240F07E804169394030
:101D1000C91BB1FA81F14909A14275D14169394024
:101D2000C91BB1FA81F14909A142DDD06CE000BFC5
:101D300081693940C91BB1FA81F14909A14263D1D6
:101D400081693940C91BB1FA81F14909A1425BD1CE
:101D500081693940C91BB1FA81F14909A14253D1C6
:101D600081693940C91BB1FA81F14909A142DFD02B
:101D70004AE000BF80693840C01BB0FA80F04009DB
:101D8000A04241D146B923E080693840C01BB0FA77
:101D900080F04009A0423BD1FEF7CAFDA0EB08014C
:101DA0002868B142F0D981693940C91BB1FA81F183
:101DB0004909A142E8D116E080693840C01BB0FA59
:101DC00080F04009A0424FF0000018BFBDE8F0814C
:101DD000FEF7AEFD286881693940C91BB1FA81F16F
:101DE0004909A142E8D100202021286385F83D104F
:101DF00085F83E00296C41F02001296485F83C00FB
:101E00000120BDE8F08100BF0020BDE8F08100BFE7
:101E10000020BDE8F0810000F0B581B00446006804
:101E20001D4643698FB203EA0701B94202D100207F
:101E300001B0F0BD41691646013201F4806125D040
:101E4000002940D1CEB100BFFEF772FD411B2068D2
:101E5000B14203D941693940B9424BD14169394056
:101E6000B942E4D041694905EED52CE041693940D9
:101E7000B942DCD04169490525D4FEF759FD2068F7
:101E800041693940B942F1D0202024E0D9B94169F3
:101E90003940B942CBD04169490514D44169394030
:101EA000B942C4D0416949050DD441693940B942AC
:101EB000BDD04169490506D441693940B942B6D01F
:101EC00041694905E3D5016841F4007101606FF48F
:101ED00080614161042000212022216384F83D209B
:101EE00084F83E10226C1043206484F83C100120DA
:101EF00001B0F0BD2020EEE770B50368044653F84A
:101F0000140F000611D40E46481C29D086BB00BF12
:101F10001868400527D4FEF70BFD236853F8140F0B
:101F2000000639D518680006F2D5002070BD00BF44
:101F300018680006F9D41868400514D4186800061B
:101F4000F3D4186840050ED418680006EDD418685C
:101F5000400508D4186800064FF0000048BF70BD67
:101F600018684005E4D56FF480601860042014E020
:101F7000154603E053F8140F0006D6D41868400540
:101F8000F1D4FEF7D5FC401B2368B042F2D9586962
:101F90000006EFD4202000E0202000212022216331
:101FA00084F83D2084F83E10226C10432064012008
:101FB00084F83C1070BD0000FEE70000FEE7000062
:101FC0007047000070470000FEF790BE70470000A9
:101FD000406A0021C185C184FFF73ABA81B090F808
:101FE0004210222921D183680246B3F5805F09D1CE
:101FF00052F8281F52F8183C002B63D003685B6826
:102000000AE000BF52F8281F13B90369002BF5D06E
:1020100003685B6803F07F030B7011680131116086
:10202000C18D01390A04C18502D001B0704700BFDB
:102030000168CA6822F02002CA60CA6822F480726D
:10204000CA604A6922F001024A61202180F84210E8
:1020500000214163026B012A3CD10163016851E810
:10206000031F026821F0100142E80313DBB101688D
:1020700051E8031F026821F0100142E8031393B1F5
:10208000016851E8031F026821F0100142E80313C0
:102090004BB1016851E8031F026821F0100142E8CA
:1020A0000313002BDAD101680A68D20606D5002294
:1020B00000920A680092496800910099818D01B0F0
:1020C000FFF7C4B9026852686FF35F2221F8022B50
:1020D0008162A5E701B0FFF725BD000040F2601066
:1020E000C2F20000FFF7B6B9FEE700002DE9F043A9
:1020F00081B0044640F25410C2F2000000F104091D
:10210000484600F02FFA484600210022002600F041
:1021100051FA18A1484600F0F9FA00F01FF943F20D
:102120008A38671C0121C0F6000800BFC9070DD01E
:10213000A055484631460122751C00F03BFA48463E
:10214000414600F0E3FA2E4606E000BFB9783A882F
:102150003038A1702280E07000F000F9042E4FF0BA
:102160000001B8BF01212328E0D1042EDEDB01B03D
:10217000BDE8F08350572D3464696769740000002E
:102180002DE9F04381B0044640F25410C2F2000041
:1021900000F10409484600F0E5F948460021002214
:1021A000002600F007FA18A1484600F0AFFA00F048
:1021B000D5F843F28A38671C0121C0F6000800BF39
:1021C000C9070DD0A055484631460122751C00F0C4
:1021D000F1F94846414600F099FA2E4606E000BF64
:1021E000B9783A883038A1702280E07000F0B6F8F3
:1021F000042E4FF00001B8BF01212328E0D1042EA6
:10220000DEDB01B0BDE8F083566572696679205067
:10221000570000002DE9F04F85B040F25410C2F293
:102220000000041D204600F09DF9204600210022F8
:10223000002600F0BFF943F29738C0F600082046A8
:10224000414600F063FA43F2D53AC0F6000A0DF1B8
:10225000120B0FF2F809002515E000BFFBB258463B
:1022600002215246FDF7EAFF204631460122751C45
:1022700000F0A0F959462E463D46204600F046FAA9
:10228000C820FEF727FA00F069F8A0F13007042F04
:10229000E4D3232802D1002EF2DD19E0204600F01D
:1022A00061F920460021002200F084F920464946C9
:1022B00000F02CFA4FF47A70FEF70CFA204600F08A
:1022C00051F920460021002200F074F94146D4E77C
:1022D0002046EDB200F046F920460021002200F031
:1022E00069F912A1204600F011FA0DF1020614A2BC
:1022F000304610212B46FDF7A1FF20460021012288
:1023000000F058F920460021012200F053F9204640
:10231000314600F0FBF940F2A81105EB4500C2F28E
:10232000000101EBC00005B0BDE8F08F4C6F636B9E
:1023300065722053656C65637465643A0000000043
:102340004C6F636B6572202564000000496E7661F6
:102350006C6964206B6579210000000070B540F65F
:102360000004C4F201042046012100220026FEF7E9
:10237000D9FA0A20FEF7AEF9204610211025FEF703
:10238000CBFA002800F0A480204620212025FEF76B
:10239000C3FA002800F09680204640214025FEF731
:1023A000BBFA002800F09080204680218025FEF7AF
:1023B000B3FA002800F08A80204601210122FEF7AE
:1023C000B1FA2046022100220026FEF7ABFA0A20CD
:1023D000FEF780F9204610211025FEF79DFA00280F
:1023E00000F08680204620212025FEF795FA00285F
:1023F00078D0204640214025FEF78EFA002873D081
:10240000204680218025FEF787FA00286ED02046DE
:1024100002210122FEF786FA20460421002200262E
:10242000FEF780FA0A20FEF755F920461021102504
:10243000FEF772FA00286BD0204620212025FEF7F7
:102440006BFA00285ED0204640214025FEF764FA52
:10245000002859D0204680218025FEF75DFA00280B
:1024600054D0204604210122FEF75CFA20460821C0
:1024700000220026FEF756FA0A20FEF72BF9204626
:1024800010211025FEF748FA002851D020462021BF
:102490002025FEF741FA002844D02046402140255F
:1024A000FEF73AFA00283FD0204680218025FEF72B
:1024B00033FA00283AD0204608210122FEF732FAEA
:1024C00051E700BF012603E0022601E0032600BF1A
:1024D00020462946FEF720FA0028F9D000250121E0
:1024E0002EE000BF012603E0022601E0032600BF24
:1024F00020462946FEF710FA0028F9D001250221CE
:102500001EE000BF012603E0022601E0032600BF13
:1025100020462946FEF700FA0028F9D002250421BA
:102520000EE000BF012603E0022601E0032600BF03
:1025300020462946FEF7F0F90028F9D003250821A6
:1025400020460122FEF7EEF902A000EB8500805D37
:1025500070BD00BF313233413435364237383943EC
:102560002A3023442DE9F04184B0044648F68C0219
:10257000C0F60C020068217902924FF0640802AAAA
:102580000423CDF80080FEF795FA42F62D16462773
:10259000C0F60D1603AD00BF206821792A4604233A
:1025A0000396CDF80080FEF785FA013FF4D104B020
:1025B000BDE8F08180B582B0C023002A08BF802327
:1025C000194321F00F02090102F10C0308328DF8C2
:1025D00004308DF8052001F10C0203688DF8062007
:1025E00001F1080201798DF807204FF0640C01AA6F
:1025F00018460423CDF800C0FEF75CFA02B080BD97
:1026000070B582B004463220FEF764F843F63C060B
:1026100020682179C0F60C06642501AA04230196DE
:102620000095FEF747FA0520FEF754F82068217957
:1026300001AA042301960095FEF73CFA0120FEF75B
:1026400049F82068217901AA042301960095FEF734
:1026500031FA0A20FEF73EF842F62C02C0F60C02D0
:1026600020682179019201AA04230095FEF722FA3D
:102670000A20FEF72FF842F62C02C8F68C022068DA
:102680002179019201AA04230095FEF713FA012093
:10269000FEF720F840F60C02C8F68C02206821797B
:1026A000019201AA04230095FEF704FA0120FEF727
:1026B00011F840F60C02C1F61C0220682179019243
:1026C00001AA04230095FEF7F5F90220FEF702F8AF
:1026D00040F60C02C6F66C0220682179019201AA2C
:1026E00004230095FEF7E6F90120FDF7F3FF40F61D
:1026F0000C02CCF6CC0220682179019201AA0423B5
:102700000095FEF7D7F902B070BD0000F0B583B0B8
:102710000A7802B304464E1E642702AD22F00F0071
:10272000110100F10D0209308DF8090001F10D00D1
:102730008DF808208DF80A0001F10902206821793E
:102740008DF80B202A4604230097FEF7B3F9B278E0
:102750000136002AE2D103B0F0BD00002DE9F04FB0
:1027600081B040F25410C2F2000043F24A4743F2F3
:102770003C4540F2A81843F20D4643F271394FF040
:10278000000A041DC0F60007C0F60005C2F20008EA
:10279000C0F60006C0F600094FF0000BBBF1080FB1
:1027A000FCD8DFE81BF011000B00390081009D0010
:1027B000010109000900A300F0E700BF00F09CFC44
:1027C000FFF7CCFDE8E700BF2046FFF7CBFE204631
:1027D00000210022FFF7EEFE43F28C412046C0F6B6
:1027E0000001FFF793FF2046002101224FF0010B6B
:1027F000FFF7E0FE43F229412046C0F60001FFF753
:1028000085FFFFF7ABFD3128C8D0322814BF4FF049
:10281000030B4FF0020BC1E72046FFF7A3FE204653
:1028200000210022FFF7C6FE20463946FFF76EFF63
:10283000204600210122FFF7BDFE20462946FFF772
:1028400065FFFFF78BFD322856D031284FF0030B80
:10285000A4D198F8080030B998F80B0018B998F886
:102860000900002852D098F8200030B998F82300C9
:1028700018B998F82100002854D098F8380030B9D9
:1028800098F83B0018B998F83900002856D098F805
:102890005000002866D198F85300002862D198F8BB
:1028A0005100002856D05DE02046FFF75BFE204631
:1028B00000210022FFF77EFE20463146FFF726FF6B
:1028C000204600210122FFF775FE20464946FFF70A
:1028D0001DFF4FF4FA60FDF7FDFE4FF0050B5DE7BD
:1028E00001208AF80B004FF0040B57E7504600F028
:1028F0005FF84FF0050B51E798F8080040B998F8D9
:102900000B0028B998F80900012801D1002022E025
:1029100098F8200040B998F8230028B998F82100C9
:10292000012801D1012016E098F8380040B998F844
:102930003B0028B998F83900012801D102200AE0AB
:1029400098F8500070B998F8530058B998F85100A9
:10295000012807D1032000EB400008EBC00A4FF02C
:10296000080B1BE72046FFF7FDFD20460021002253
:102970004FF0000AFFF71EFE43F258312046C0F622
:102980000001FFF7C3FE204600210122FFF712FEDF
:1029900043F27F312046C0F60001FFF7B7FE4FF447
:1029A000FA60FDF797FEF7E6002001B0BDE8F08F72
:1029B0002DE9F04F91B004460E30029040F25410D1
:1029C00040F60045C2F20000C4F201054FF00008D5
:1029D00004F1120B071D0DF134094FF0000ACDE987
:1029E0000B8800BFBAF1090FFCD8DFE81AF04500E8
:1029F00053008700B500E10013010D0021010B0019
:102A0000B50100BFEEE700BFA18928460022C4F847
:102A1000048084F80880A4F80A80FDF783FF384614
:102A2000FFF7A0FD607A236843F2E73200284FF0F9
:102A3000420648464FF01001C0F6000208BF532678
:102A40000096FDF7FBFB384600210022FFF7B2FDA0
:102A500038464946FFF75AFE384600210122FFF763
:102A6000A9FD43F28C313846C0F60001FFF74EFE57
:102A70004FF0090AB6E700BF207A4FF0030A00289A
:102A8000B0D1A18928460122FDF74CFF4FF0020A80
:102A9000A8E700BFA18928460022FDF743FF0120D7
:102AA000A0723846FFF75EFD607A236843F2E73292
:102AB00000284FF0420648464FF01001C0F60002D1
:102AC00008BF53260096FDF7B9FB384600210022C7
:102AD000FFF770FD38464946FFF718FE38460021DB
:102AE0000122FFF767FD43F28C313846C0F6000142
:102AF000FFF70CFE40F6B83054E000BF3846FFF751
:102B000031FD607A236843F2AD4200284FF042065F
:102B100048464FF01001C0F6000208BF5326009649
:102B2000FDF78CFB384600210022FFF743FD3846B5
:102B30004946FFF7EBFD384600210122FFF73AFD39
:102B400043F2BF413846C0F60001FFF7DFFDFFF753
:102B500005FC4FF0040A45E70CA8FFF7C7FA207AF6
:102B600078B102980C9900684FF0070A88423FF448
:102B700039AFDBF800000C994FF0070A88423FF4A8
:102B800031AF3846FFF7EEFC384600210022FFF750
:102B900011FD43F2D8313846C0F60001FFF7B6FD0B
:102BA0004FF4FA60FDF796FD4FF0090A1AE700BFEF
:102BB0000CA8FFF79BFA0BA8FFF7E2FADDE90B1070
:102BC000884240F0B3800121C4F80E003846E1721B
:102BD000FFF7C8FC384600210022FFF7EBFC43F268
:102BE000A3413846C0F60001FFF790FD38460021AA
:102BF0000122FFF7DFFC43F203413846C0F6000133
:102C0000FFF784FD4FF4FA60FDF764FD4FF0050A0D
:102C1000E8E600BF00F020FA20684FF0010A60608B
:102C20004FF4807084F808A06081FFF797FBD9E625
:102C3000A18928460122FDF775FEFDF7B1FA42F69B
:102C40006B11C7F2824180FB0112111301EBD271AB
:102C500042F2283201FB120043F2D53200F57A73BA
:102C600058460521C0F60002C4F81280FDF7E6FAC6
:102C700022680DF10E003AA15B46FDF7CBFA40F257
:102C80005410C2F200004078A0B940F2541A01205A
:102C9000C2F2000A2E460DF10E058AF80100284600
:102CA000FDF7A4FB0AF10C0182B20846294635461D
:102CB000FEF73AFF3846FFF755FC38460021002260
:102CC000FFF778FC43F263313846C0F60001FFF7A6
:102CD0001DFD4FF4FA60FDF7FDFC3846FFF742FC9E
:102CE000384600210022FFF765FC43F2F6313846F2
:102CF000C0F60001FFF70AFD384600210122FFF768
:102D000059FC43F270413846C0F60001FFF7FEFC63
:102D1000FFF724FB4FF0070A322808BF4FF0060ADE
:102D2000312808BF4FF0050A5CE600BF3846FFF7C0
:102D300019FC384600210022FFF73CFC43F2D83151
:102D40003846C0F60001FFF7E1FC4FF4FA60FDF7EA
:102D5000C1FC4FF0040A45E6002011B0BDE8F08F39
:102D60004C2564206973204F70656E65642E204E7B
:102D70006577204F54503A25730D0A0090B0FDF747
:102D8000C3FF00240120CDE90B44CDE9094406909E
:102D90000A904FF450104FF480314FF40032022566
:102DA0000F9006A807910892CDE90D51FEF75EF944
:102DB00020B1EFF3108072B6FEE700BF4FF48060E1
:102DC0000F26CDE9040401A80221CDE90165039491
:102DD000FEF744F820B1EFF3108072B6FEE700BFB3
:102DE00041F21800C4F20200016840F6000941F007
:102DF000200101600168C4F2010901F0200106917F
:102E000006990168002241F0040101600168002771
:102E100001F0040106910699016841F00801016082
:102E200000680F2100F00800069006984846FDF75C
:102E300079FD09F58065284640F60341002240F6F9
:102E40000348FDF76FFD069606AE01244FF0020A17
:102E500048463146CDE90744CDF824A0FDF74EFCA5
:102E6000F020CDE90607484631460894FDF746FCB8
:102E700028463146CDE90684CDE9087AFDF73EFCC7
:102E800040F20825A9F53440C2F2000548F2A061DD
:102E9000C0F201014FF4804285E883002846C5E96D
:102EA0000372C5E90577C5E90777FDF747FD28B146
:102EB000EFF3108072B600BFFEE700BF09F5405186
:102EC00040F25419C2F20009484640F80C1F4FF472
:102ED000E1310C22C0E90117C0E90377C0E90527F9
:102EE000C761FEF767FD28B1EFF3108072B600BF2F
:102EF000FEE700BF4C4644F8045F4E202071204698
:102F0000FFF77EFB40F2A810C2F200004FF48031C0
:102F10004FF0FF32012381608381C0E906320162F4
:102F2000022140F2001300F1300C8184C0F2010351
:102F30008CE80E004FF480618187032100F1480C7A
:102F400000268CE80E004FF40061C0E90062A0F892
:102F500054102046FFF706FB204600210022FFF711
:102F600029FB43F2AB31C0F600012046FFF7CEFB50
:102F7000204600210122FFF71DFB43F21C41C0F651
:102F800000012046FFF7C2FB40F6B830FDF7A2FB78
:102F900043F2BE3843F2C73A43F20D4743F271356C
:102FA00009F10404C0F60008C0F6000AC0F60007E4
:102FB000C0F60005032EFDD8DFE806F002242A3211
:102FC0002046FFF7CFFA204600210022FFF7F2FA51
:102FD00020464146FFF79AFB204600210122FFF7D9
:102FE000E9FA20465146FFF791FBFFF7B7F90326B0
:102FF00089F80000322808BF0226312808BF0126C0
:10300000D8E700BFFFF7AAFBFFF7A8FB0026D1E730
:1030100000F012F94FF4FA60FDF75CFB0026C9E7F7
:103020002046FFF79FFA2046002100220026FFF7E6
:10303000C1FA20463946FFF769FB204600210122EC
:10304000FFF7B8FA20462946FFF760FB4FF4FA6015
:10305000FDF740FBAEE7000010B540F25410C2F29D
:103060000000041D2046FFF77DFA204600210022C3
:10307000FFF7A0FA13A12046FFF748FB20460021E6
:103080000122FFF797FA12A12046FFF73FFB4FF40A
:10309000FA60FDF71FFB2046FFF764FA2046002187
:1030A0000022FFF787FA0CA12046FFF72FFB2046EE
:1030B00000210122FFF77EFA0BA12046BDE8104057
:1030C000FFF724BB456E6A6F7920796F7572000037
:1030D0006C6F636B65722100446F6E653F205072A8
:1030E00065737320416E79006B657920746F20637E
:1030F0006C6F7365000000002DE9F04F87B040F25F
:103100005410C2F20000041D2046FFF72BFA40F2D3
:10311000A817C2F20007787A43F2D03A00284FF09D
:1031200042003B6808BF5320397A43F2B932C0F6F7
:10313000000A43F28148C0F600025646C0F6000875
:103140000DF10C0B002908BF1646009058461021BF
:1031500042464FF042090196FDF770F820460021E3
:103160000022FFF727FA20465946FFF7CFFA97F8D3
:10317000210097F8201000284FF04200BB6908BFDB
:103180005320002943F2B9315546C0F6000108BF6B
:103190000D4600905846102142460195FDF74EF825
:1031A000204608210022FFF705FA20465946FFF77E
:1031B000ADFA97F8390097F8381000284FF0420020
:1031C0003B6B08BF5320564643F2B9350029C0F681
:1031D000000508BF2E460090584610214246019631
:1031E000FDF72CF8204600210122FFF7E3F92046E5
:1031F0005946FFF78BFA97F85100BB6C002808BFBF
:103200004FF0530997F850001021002858464246C5
:1032100008BFAA46CDF80090CDF804A0FDF70EF83F
:10322000204608210122FFF7C5F920465946FFF73D
:103230006DFA07B0BDE8F08F2DE9F04740F2541069
:10324000C2F2000043F28C4843F25A4943F20D4A5D
:1032500043F271350027041DC0F60008C0F60009CE
:10326000C0F6000AC0F60005002600BF082FFDD8F2
:10327000DFE807F024444A08065A0606540000BF57
:10328000F4E700BF2046FFF76DF920460021002239
:10329000FFF790F920465146FFF738FA2046002103
:1032A0000122FFF787F920462946FFF72FFA4FF44E
:1032B000FA60FDF70FFA0527D8E700BF2046FFF7B1
:1032C00051F9204600210022FFF774F920464146BB
:1032D000FFF71CFA2046002101220127FFF76AF9B7
:1032E00020464946FFF712FAFFF738F83128BDD0DB
:1032F000322814BF03270227B8E700BFFFF7FCFE00
:10330000FFF72CF80027B1E7FEF784FF0646007AA6
:103310000827002808BF0327A8E700BF3046FFF7AB
:1033200047FB0527A2E700BF0020BDE8F0870000AB
:103330000000000000000102030406070809000065
:103340000000010203040102020304050607080944
:103350000A0B0C0D0E0F10104E6F7420666F756EF9
:1033600064210057656C636F6D65206261636B213A
:1033700000506C6561736520616761696E2100545E
:10338000727920616761696E21002A00476F6F645E
:103390006279652E2E2E0043686F6F736520796FFA
:1033A0007572206C6F636B65723A0053544D333203
:1033B00020493243204C4344004652454500312EBB
:1033C00047554920444F00322E4C415920444F006C
:1033D00042555359002564005057206E6F74206D7C
:1033E000617463686564004C25645B25635D2063DC
:1033F0006C6F73656400312E4B6565702075736961
:103400006E670053756365737366756C00496E76FD
:10341000616C6964206F7074696F6E004C696272D0
:103420006172792044656D6F00322E2053656C65A2
:1034300063742061204C6F636B657200322E2042F2
:103440006967204C6F636B657200312E20536D618C
:103450006C6C204C6F636B657200322E2043686F7A
:103460006F736520796F7572204C6F636B657200A6
:10347000322E52656C65617365206C6F636B65728B
:10348000004C25645B25635D20257300312E2043AD
:103490006865636B204C6F636B6572205374617455
:1034A000757300505720697320736574004C256450
:1034B0005B25635D206F70656E2C20686974006108
:1034C000206B657920746F2073657420707700001D
:1034D000F03400080000002010000000280100085F
:1034E00000350008100000205008000044010008CA
:1034F000010000001000000000127A00000000002F
:04000005080000ED02
:00000001FF
